:100000000C94B7000C94DF000C94DF000C94DF001C
:100010000C94DF000C94DF000C94DF000C94DF00E4
:100020000C94DF000C94DF000C94DF000C94DF00D4
:100030000C94DF000C94DF000C94DF000C94DF00C4
:100040000C9423050C94DF000C94DF000C94DF006B
:100050000C94DF000C94DF000C94DF000C94DF00A4
:100060000C94DF000C94DF0097A0895B5A0F830D7E
:10007000C95F6035C2E907E18C24671E458E0863BD
:1000800025F0150A17BE0694F778EA4B001AC53E0C
:100090005EFCDBCB75230B2039B12158ED95385729
:1000A000AE147D88ABA844AF4AA547868B301BA60B
:1000B0004D929EE7536FE57A3CD385E6DC695C2977
:1000C000372EF528F4668F3641193FA101D85049E3
:1000D000D14C84BBD05912A9C8C4878274BC9F5626
:1000E000A4646DC6ADBA034034D9E2FA7C7B05CA7C
:1000F0002693767EFF5255D4CFCE3BE32F103A1194
:10010000B6BD1C2ADFB7AAD577F898022C9AA34669
:10011000DD99659BA72BAC09811627FD13626C6ED8
:100120004F71E0E8B2B97068DAF661E4FB22F2C11F
:10013000EED2900CBFB3A2F1513391EBF90EEF6BFD
:1001400031C0D61FB5C76A9DB854CCB07379322D73
:100150007F0496FE8AECCD5DDE72431D1848F38D58
:1001600080C34E42D73D9CB497001E0184061124E3
:100170001FBECFEFD8E0DEBFCDBF11E0A0E0B1E001
:10018000E2E7F5E102C005900D92A231B107D9F77F
:1001900015E0A2E1B1E001C01D92A830B107E1F77E
:1001A00011E0CEE6D1E004C02297FE010E94B30A1E
:1001B000CA36D107C9F70E9434060C94E1000C94AA
:1001C0000000F8940C94B70A569A08951F93CF93A1
:1001D000DF93382F492F8091D8048F5F87708093E9
:1001E000D80480FD02C020E001C020E881FD206429
:1001F00082FD2062122F105F832F942F9C01F90142
:10020000C0E0D0E06285662331F080E091E070E0EC
:100210000E94680A6F5F6783212F269F212D11247A
:100220002483662311F06150678321963196C33091
:10023000D10541F7DF91CF911F9108950895CF9394
:10024000DF93C0E0D0E080910201909103019C0116
:10025000C29FC001C39F900DD29F900D1124209189
:10026000D2043091D3046091D4047091D504680F06
:10027000791F4091D6045091D704820F931F0E949A
:100280003E0AFE01EE51FC4F80832196C03FD1050E
:10029000D1F68091D6049091D7042091000130913D
:1002A0000101820F931F9093D7048093D604DF91AE
:1002B000CF9108954F925F926F927F928F929F920B
:1002C000AF92BF92CF92DF92EF92FF920F931F9364
:1002D000DF93CF93CDB7DEB729970FB6F894DEBF83
:1002E0000FBECDBF0E941F01E2EEEE2EE3E0FE2E18
:1002F00000E010E070E6472E77247A9467E0862EBF
:10030000912C8C0E9D1E54E0A52EB12CAC0EBD1E62
:1003100040EA542E35E0632E6E010894C11CD11CB6
:10032000033D110574F0F701808159826A828B8345
:10033000B801660F771F600F711F6E5E7E4FC6019A
:1003400018C0F7018081B801660F771F00FD09C052
:100350001C827D828E83600F711F6E5E7E4FC50191
:1003600008C04F8278868987600F711F6E5E7E4F4E
:10037000C4010E948B070F5F1F4F0894E11CF11C02
:10038000003F110569F682EE94E06091E2040E945C
:10039000DB0629960FB6F894DEBF0FBECDBFCF9116
:1003A000DF911F910F91FF90EF90DF90CF90BF9062
:1003B000AF909F908F907F906F905F904F90089537
:1003C000EF92FF920F931F93CF93DF93EC018B017A
:1003D0007A018091EF04882309F04DC08FEE94E0FC
:1003E0000E944506892B09F446C01092FA04109227
:1003F000F9048FEF8093FD048093FE048093FF0443
:1004000080930005809301058093020581E080932D
:10041000030510920505109204051092FC04109239
:10042000FB048091E5049091E604892B31F487EF79
:1004300094E09093E6048093E504E091E704F09162
:10044000E804309721F087EF94E09583848387EF69
:1004500094E09093E8048093E704109207051092CB
:1004600006058AE091E09093F8048093F7048FEEFC
:1004700094E00E944F0687EF94E0BE01A801970127
:100480000E945306DF91CF911F910F91FF90EF9043
:10049000089568EB7BE080E090E00E949F0582E198
:1004A00091E060EF70E040E050E00E94E00184E203
:1004B0008093E204809104019091050125E038E0E9
:1004C000AC01429FC001439F900D529F900D11249B
:1004D000875E994C9093D3048093D204AC01429FE1
:1004E000C001439F900D529F900D1124875E994C3F
:1004F0009093D5048093D404AC01429FC001439FE4
:10050000900D529F900D1124875E994C9093050198
:10051000809304019093D7048093D60408955F924A
:100520006F927F928F929F92AF92BF92CF92DF9203
:10053000EF92FF920F931F93DF93CF93CDB7DEB768
:100540002E970FB6F894DEBF0FBECDBF5C014A01F7
:10055000F9011E2DDC011C969C917A8369835C83D2
:100560004B8380818B8781818C8782818D879130BD
:1005700029F4CE0101960E94E60006C01A8619866B
:1005800018861F821E821D8289819A81810F911D8A
:100590009A838983002311F480E002C0812F8D5F4C
:1005A0008E870E947905F50127853089621B730BC0
:1005B00062337105B0F3F89439814A818BB15E984A
:1005C00018858D81181B1D83E981FA81E081EE2356
:1005D00011F420E004C02E2F210F08F42FEF832FF9
:1005E000942FFC01CB84022F2C2D029F012D11246E
:1005F000DE84AB81BC81FC84ED847E816F81788454
:1006000069845A8450E040E030E020E080C1872DCA
:10061000811B182F862D871B782F852D861B682F11
:100620009BB190648BB18F7B11979BB900C007FF82
:100630008BB921813327889400C000C0002C8BB96E
:100640002111270F00C0002C9BB900C006FF8BB9F9
:1006500008F42FEF889400C000C000C08BB9F0FCF4
:10066000320F00C0002C9BB900C005FF8BB9379535
:100670008894F1FC320F00C000C0002C8BB9379574
:10068000889400C0002C9BB900C004FF8BB9F2FC19
:10069000320F3795889400C000C0002C8BB9F3FC52
:1006A000320F00C0002C9BB900C003FF8BB93795F7
:1006B0008894F4FC320F00C000C0002C8BB9379531
:1006C000889400C0002C9BB900C002FF8BB9F5FCD8
:1006D000320F3795889400C000C0002C8BB9F6FC0F
:1006E000320F00C0002C9BB900C001FF8BB93795B9
:1006F0008894F7FC320F00C000C0002C8BB93795EE
:10070000889400C0002C9BB900C000FF8BB900C0CA
:1007100000C0002C00C000C08BB900C000C0002C7D
:100720009BB900C037FF8BB922814427889400C051
:1007300000C0002C8BB92111260F00C0002C9BB9E2
:1007400000C036FF8BB908F42FEF889400C000C0BA
:1007500000C08BB9E0FC420F00C0002C9BB900C068
:1007600035FF8BB947958894E1FC420F00C000C06B
:10077000002C8BB94795889400C0002C9BB900C011
:1007800034FF8BB9E2FC420F4795889400C000C04B
:10079000002C8BB9E3FC420F00C0002C9BB900C0B9
:1007A00033FF8BB947958894E4FC420F00C000C02A
:1007B000002C8BB94795889400C0002C9BB900C0D1
:1007C00032FF8BB9E5FC420F4795889400C000C00A
:1007D000002C8BB9E6FC420F00C0002C9BB900C076
:1007E00031FF8BB947958894E7FC420F00C000C0E9
:1007F000002C8BB94795889400C0002C9BB900C091
:1008000030FF8BB9ED0DF11D889400C000C000C011
:100810008BB900C000C0002C9BB900C047FF8BB94A
:1008200020810027889400C000C0002C8BB92111C2
:10083000210F00C0002C9BB900C046FF8BB908F403
:100840002FEF889400C000C000C08BB9C0FC020F1D
:1008500000C0002C9BB900C045FF8BB90795889458
:10086000C1FC020F00C000C0002C8BB90795889412
:1008700000C0002C9BB900C044FF8BB9C2FC020F22
:100880000795889400C000C0002C8BB9C3FC020FF0
:1008900000C0002C9BB900C043FF8BB9079588941A
:1008A000C4FC020F00C000C0002C8BB907958894CF
:1008B00000C0002C9BB900C042FF8BB9C5FC020FE1
:1008C0000795889400C000C0002C8BB9C6FC020FAD
:1008D00000C0002C9BB900C041FF8BB907958894DC
:1008E000C7FC020F00C000C0002C8BB9079588948C
:1008F00000C0002C9BB900C040FF8BB900C000C0F5
:10090000002C00C000C08BB900C000C0002C1097A4
:1009100009F07DCEB401882777FD8095982F20EED1
:1009200031E040E050E00E94490A7B018C01DC018B
:10093000CB0124E0B695A795979587952A95D1F791
:1009400081509440A040B040B0F02091DD0430913F
:10095000DE044091DF045091E004D801C701FEE0BD
:10096000B695A79597958795FA95D1F7820F931F1E
:10097000A41FB51F0BC08091DD049091DE04A091EF
:10098000DF04B091E0040196A11DB11D8093DD0448
:100990009093DE04A093DF04B093E00478940E9467
:1009A0007905D50150967C936E931F972E960FB6BE
:1009B000F894DEBF0FBECDBFCF91DF911F910F9195
:1009C000FF90EF90DF90CF90BF90AF909F908F906F
:1009D0007F906F905F900895EF92FF920F93DF9357
:1009E000CF9300D00F92CDB7DEB7AB0119821A8238
:1009F0001B829E012F5F3F4FB90100E0EE24FF24D0
:100A00000E948F020F900F900F90CF91DF910F9166
:100A1000FF90EF900895EF92FF920F9301E0EE2484
:100A2000FF240E948F020F91FF90EF900895EF92A4
:100A3000FF920F9300E0EE24FF240E948F020F919B
:100A4000FF90EF9008951F920F920FB60F9211240E
:100A50002F933F938F939F93AF93BF938091DD0428
:100A60009091DE04A091DF04B091E0043091E104A4
:100A70000196A11DB11D232F2D5F2D3720F02D577D
:100A80000196A11DB11D2093E1048093DD04909394
:100A9000DE04A093DF04B093E0048091D904909128
:100AA000DA04A091DB04B091DC040196A11DB11D14
:100AB0008093D9049093DA04A093DB04B093DC0410
:100AC000BF91AF919F918F913F912F910F900FBE4A
:100AD0000F901F9018958FB7F8942091DD043091F6
:100AE000DE044091DF045091E0048FBFB901CA01D8
:100AF00008959FB7F8942091D9043091DA04409179
:100B0000DB045091DC0486B5A89B06C08F3F21F022
:100B10002F5F3F4F4F4F5F4F9FBF542F432F322FB9
:100B20002227280F311D411D511D82E0220F331F46
:100B3000441F551F8A95D1F7B901CA0108959B0139
:100B4000AC017FB7F8948091D9049091DA04A09118
:100B5000DB04B091DC0466B5A89B05C06F3F19F0BB
:100B60000196A11DB11D7FBFBA2FA92F982F8827ED
:100B7000860F911DA11DB11D62E0880F991FAA1F4C
:100B8000BB1F6A95D1F7BC012DC0FFB7F8948091C7
:100B9000D9049091DA04A091DB04B091DC04E6B5AD
:100BA000A89B05C0EF3F19F00196A11DB11DFFBF25
:100BB000BA2FA92F982F88278E0F911DA11DB11D27
:100BC000E2E0880F991FAA1FBB1FEA95D1F7861B89
:100BD000970B885E9340C8F221503040404050400F
:100BE00068517C4F211531054105510571F6089575
:100BF000789484B5826084BD84B5816084BD85B5F8
:100C0000826085BD85B5816085BDEEE6F0E08081BE
:100C100081608083E1E8F0E01082808182608083DF
:100C2000808181608083E0E8F0E080818160808362
:100C3000E1EBF0E0808184608083E0EBF0E0808194
:100C400081608083EAE7F0E0808184608083808136
:100C500082608083808181608083808180688083DE
:100C60001092C10008950895CF93DF930E94F80574
:100C70000E9433060E944902C0E0D0E00E945A015F
:100C80002097E1F30E940000F9CFFC0120E030E062
:100C90008081882311F421E030E0C9010895FC012E
:100CA00081E080830895CF92DF92EF92FF920F93BD
:100CB0001F93CF93DF938C017B011216130624F050
:100CC0006A01C0E0D0E002C06901EA01D801ED91FB
:100CD000FC910480F581E02DC8010995CE01880FB3
:100CE000991F8C0F9D1F8E0D9F1DF801938382838A
:100CF000C586D686C801DF91CF911F910F91FF90D5
:100D0000EF90DF90CF9008958FEF8093E2041092E0
:100D1000E4041092E3040895EF92FF920F931F935F
:100D2000CF93DF93EC018091ED049091EE04019656
:100D30009093EE048093ED04019786179707A4F132
:100D40000E946B059B01AC016091ED047091EE0473
:100D500088EE93E0FB01E89FB001E99F700DF89FDA
:100D6000700D1124882777FD8095982FE090E90475
:100D7000F090EA040091EB041091EC042E193F0965
:100D8000400B510B0E947B0A3A8329831092EE0498
:100D90001092ED040E946B056093E9047093EA04DD
:100DA0008093EB049093EC04DF91CF911F910F910E
:100DB000FF90EF9008952F923F924F925F926F9223
:100DC0007F928F929F92AF92BF92CF92DF92EF92DB
:100DD000FF920F931F93DF93CF93CDB7DEB7299781
:100DE0000FB6F894DEBF0FBECDBF1C016F8300911C
:100DF000E5041091E604862E9924AA24BB24CE0192
:100E000004969987888765C0D8011C96BC91BE83DB
:100E1000F101818192818436910518F4D8011C96E4
:100E20001C92D801ED91FC911197828193819D8351
:100E30008C8312966D907C9013971D964D905C90CC
:100E40001E9719821A821B829F81992399F168014A
:100E50007E010894E11CF11CD60116962C91169780
:100E600019966C912223D9F06623C9F070E080E0D6
:100E700090E06F5F7F4F8F4F9F4F30E040E050E03A
:100E80002F5F3F4F4F4F5F4F0E94490AA5019401CA
:100E90000E94490ABC0188279927F70160830894BA
:100EA000C11CD11C0894E11CF11C88859985E816A9
:100EB000F90691F6C801B301A2019E012F5F3F4FD1
:100EC000AC81BD81FD0109958E81F8018487048183
:100ED00015810115110509F097CFC10169E170E095
:100EE0000E948C0629960FB6F894DEBF0FBECDBFC8
:100EF000CF91DF911F910F91FF90EF90DF90CF90F6
:100F0000BF90AF909F908F907F906F905F904F9029
:100F10003F902F9008951F93FC01DB018081718128
:100F20001281482F4F71440F440F440F642F25E561
:100F3000629F612D1124282F30E087FD24C0C90154
:100F40008072907026FD0CC0892B29F4562F509585
:100F500080E0462F11C0462F4B5A80E05BEA0CC060
:100F6000892B61F4242F3AEA239F212D11245BEA77
:100F7000521B462F455580E030E02AC080E0462FC6
:100F80004095362F11C0C9018072907026FD13C0A4
:100F9000892B61F480E0242F3AEA239F212D11242C
:100FA0004BEA421B322F3B5A50E012C080E0362FF2
:100FB0003095562F0CC0892B29F4562F5B5A80E0B0
:100FC0003BEA04C0562F555580E035E5361B40E01E
:100FD0007F3F09F41BC0552321F0579F512D09F085
:100FE0005F5F442321F0479F412D09F04F5F33237A
:100FF00021F0379F312D09F03F5F1124272F2095D5
:10100000229F212D1124520F420F320F1F3F09F44E
:101010001AC020E0112321F0119F212D09F02F5F2C
:10102000552321F0529F512D09F05F5F442321F099
:10103000429F412D09F04F5F332321F0329F312D24
:1010400009F03F5F11245C9311964C93119712960F
:101050003C931F9108955F926F927F928F929F921F
:10106000AF92BF92CF92DF92EF92FF920F931F93B6
:10107000CF93DF939C01752EC32FD0E0FE01E8597A
:10108000FF4FE491E70F0E2F10E0D801A859BF4F92
:10109000FD01A49107591F4FF801F490C759DF4F84
:1010A000FE019491970FC92FD0E0CE0188599F4F30
:1010B000FC011491C759DF4FFE016490862E542E17
:1010C000C90196958795B82FBF77769567956F7705
:1010D000569547955FE7952E9422022F029F012D8A
:1010E000282D229F212D822E352D339F312D112425
:1010F000532EA70DAA2EBB24F501E859FF4F84916A
:101100008F70982F83FD02C02B2F01C0262F8430B3
:1011100010F4862F07C08C3021F08E3011F0892D0D
:1011200001C08B2F90FD219591FD8195992787FD19
:101130009095332727FD3095820F931F95958795BE
:10114000582F170DC12EDD24F601E859FF4F849169
:101150004B2F40588F70982F83FD02C0242F01C061
:10116000262F843010F4862F07C08C3021F08E306B
:1011700011F0892D01C0842F90FD219591FD81955D
:10118000992787FD9095332727FD3095820F931F70
:1011900095958795282F58173CF4251B122F109FE3
:1011A000112D1124150F08C0852F821B282F209F79
:1011B000212D1124152F121BF70CEF2CFF24F70102
:1011C000E859FF4F8491A62FA0588F70982F83FD68
:1011D00002C02B2F01C02A2F843010F48A2F07C0A1
:1011E0008C3021F08E3011F0892D01C08B2F90FDB5
:1011F000219591FD8195992787FD9095332727FDAE
:101200003095820F931F95958795582F670CC62DA3
:10121000D0E0FE01E859FF4F84918F70982F83FD35
:1012200002C0242F01C02A2F843010F48A2F07C057
:101230008C3021F08E3011F0892D01C0842F90FD6B
:10124000219591FD8195992787FD9095332727FD5D
:101250003095820F931F9595879558173CF4851B01
:10126000782F709F712D1124750F07C0252F281B13
:10127000209F212D1124752F721BE9E6F0E0AE0EA0
:10128000BF1EF5015491E0E8BE2EB90C5F70952F9A
:1012900053FD02C02B2F01C0262F543010F4862F8F
:1012A00007C05C3021F05E3011F08B2D01C08B2F18
:1012B00090FD219591FD8195992787FD9095332784
:1012C00027FD3095820F931F95958795582F29E616
:1012D00030E0C20ED31EF60134913F70832F33FDF0
:1012E00002C0242F01C0262F343038F03C3021F0CA
:1012F0003E3011F06B2D01C0642F80FD219581FDE2
:101300006195862F992787FD9095332727FD309586
:10131000820F931F95958795282F58173CF4251B0E
:10132000622F609F612D1124650F08C0F52FF81BF7
:101330002F2F209F212D1124652F621B29E630E0DD
:10134000E20EF31EF70154915F70852F53FD02C02A
:101350002B2F01C02A2F543010F4BA2F05C05C3057
:1013600019F05E3009F0BB2D80FD219581FDB1950E
:101370008B2F992787FD9095332727FD3095820F76
:10138000931F95958795582FC759DF4FFE013491CC
:101390003F70832F33FD02C0242F01C02A2F343029
:1013A00038F03C3021F03E3011F0AB2D01C0A42FBD
:1013B00080FD219581FDA1958A2F992787FD909524
:1013C000332727FD3095820F931F959587955817E2
:1013D0003CF4851B382F309F312D1124350F07C069
:1013E000252F281B209F212D1124352F321B171745
:1013F00044F4711B472F282D429F412D1124410F8A
:1014000008C0212F271B482D249F212D1124412F57
:10141000421B631744F4361B232F382D239F212DA5
:101420001124260F08C0262F231B382D239F212D82
:101430001124621B262F42173CF4241B352D239FB9
:10144000212D1124240F09C0842F821B282F352D14
:10145000239F212D1124421B242F822FDF91CF9116
:101460001F910F91FF90EF90DF90CF90BF90AF90C2
:101470009F908F907F906F905F9008950E942B08AF
:10148000282F245B37ED239F212D1124822F880FD5
:101490000895629FD001739FF001829FE00DF11DBE
:1014A000649FE00DF11D929FF00D839FF00D749FDE
:1014B000F00D659FF00D9927729FB00DE11DF91F8A
:1014C000639FB00DE11DF91FBD01CF0111240895E7
:1014D00097FB092E07260AD077FD04D02ED006D020
:1014E00000201AF4709561957F4F0895F6F7909556
:1014F00081959F4F0895A1E21A2EAA1BBB1BFD01E7
:101500000DC0AA1FBB1FEE1FFF1FA217B307E407E2
:10151000F50720F0A21BB30BE40BF50B661F771F3A
:10152000881F991F1A9469F760957095809590951A
:101530009B01AC01BD01CF010895AA1BBB1B51E16A
:1015400007C0AA1FBB1FA617B70710F0A61BB70B33
:10155000881F991F5A95A9F780959095BC01CD01D8
:101560000895EE0FFF1F0590F491E02D0994F89473
:02157000FFCFAB
:101572000400EF0C39050000000017050B05E4001C
:02158200EC0477
:00000001FF
